{"abi":[{"type":"constructor","inputs":[],"stateMutability":"nonpayable"},{"type":"function","name":"DEFAULT_ADMIN_ROLE","inputs":[],"outputs":[{"name":"","type":"bytes32","internalType":"bytes32"}],"stateMutability":"view"},{"type":"function","name":"ISSUER_ROLE","inputs":[],"outputs":[{"name":"","type":"bytes32","internalType":"bytes32"}],"stateMutability":"view"},{"type":"function","name":"anchorVC","inputs":[{"name":"vcHash","type":"bytes32","internalType":"bytes32"}],"outputs":[],"stateMutability":"nonpayable"},{"type":"function","name":"getRoleAdmin","inputs":[{"name":"role","type":"bytes32","internalType":"bytes32"}],"outputs":[{"name":"","type":"bytes32","internalType":"bytes32"}],"stateMutability":"view"},{"type":"function","name":"getVCEntry","inputs":[{"name":"vcHash","type":"bytes32","internalType":"bytes32"}],"outputs":[{"name":"","type":"uint8","internalType":"enum VCRegistry.VCStatus"},{"name":"","type":"address","internalType":"address"},{"name":"","type":"uint256","internalType":"uint256"}],"stateMutability":"view"},{"type":"function","name":"grantRole","inputs":[{"name":"role","type":"bytes32","internalType":"bytes32"},{"name":"account","type":"address","internalType":"address"}],"outputs":[],"stateMutability":"nonpayable"},{"type":"function","name":"hasRole","inputs":[{"name":"role","type":"bytes32","internalType":"bytes32"},{"name":"account","type":"address","internalType":"address"}],"outputs":[{"name":"","type":"bool","internalType":"bool"}],"stateMutability":"view"},{"type":"function","name":"initialize","inputs":[],"outputs":[],"stateMutability":"nonpayable"},{"type":"function","name":"renounceRole","inputs":[{"name":"role","type":"bytes32","internalType":"bytes32"},{"name":"callerConfirmation","type":"address","internalType":"address"}],"outputs":[],"stateMutability":"nonpayable"},{"type":"function","name":"revokeRole","inputs":[{"name":"role","type":"bytes32","internalType":"bytes32"},{"name":"account","type":"address","internalType":"address"}],"outputs":[],"stateMutability":"nonpayable"},{"type":"function","name":"revokeVC","inputs":[{"name":"vcHash","type":"bytes32","internalType":"bytes32"}],"outputs":[],"stateMutability":"nonpayable"},{"type":"function","name":"supportsInterface","inputs":[{"name":"interfaceId","type":"bytes4","internalType":"bytes4"}],"outputs":[{"name":"","type":"bool","internalType":"bool"}],"stateMutability":"view"},{"type":"event","name":"Initialized","inputs":[{"name":"version","type":"uint64","indexed":false,"internalType":"uint64"}],"anonymous":false},{"type":"event","name":"RoleAdminChanged","inputs":[{"name":"role","type":"bytes32","indexed":true,"internalType":"bytes32"},{"name":"previousAdminRole","type":"bytes32","indexed":true,"internalType":"bytes32"},{"name":"newAdminRole","type":"bytes32","indexed":true,"internalType":"bytes32"}],"anonymous":false},{"type":"event","name":"RoleGranted","inputs":[{"name":"role","type":"bytes32","indexed":true,"internalType":"bytes32"},{"name":"account","type":"address","indexed":true,"internalType":"address"},{"name":"sender","type":"address","indexed":true,"internalType":"address"}],"anonymous":false},{"type":"event","name":"RoleRevoked","inputs":[{"name":"role","type":"bytes32","indexed":true,"internalType":"bytes32"},{"name":"account","type":"address","indexed":true,"internalType":"address"},{"name":"sender","type":"address","indexed":true,"internalType":"address"}],"anonymous":false},{"type":"event","name":"VCAnchored","inputs":[{"name":"vcHash","type":"bytes32","indexed":true,"internalType":"bytes32"},{"name":"issuer","type":"address","indexed":true,"internalType":"address"}],"anonymous":false},{"type":"event","name":"VCRevoked","inputs":[{"name":"vcHash","type":"bytes32","indexed":true,"internalType":"bytes32"},{"name":"issuer","type":"address","indexed":true,"internalType":"address"}],"anonymous":false},{"type":"error","name":"AccessControlBadConfirmation","inputs":[]},{"type":"error","name":"AccessControlUnauthorizedAccount","inputs":[{"name":"account","type":"address","internalType":"address"},{"name":"neededRole","type":"bytes32","internalType":"bytes32"}]},{"type":"error","name":"InvalidInitialization","inputs":[]},{"type":"error","name":"NotInitializing","inputs":[]},{"type":"error","name":"ReentrancyGuardReentrantCall","inputs":[]}],"bytecode":{"object":"0x608060405234801561000f575f5ffd5b5061001e61002360201b60201c565b61019e565b5f61003261012160201b60201c565b9050805f0160089054906101000a900460ff161561007c576040517ff92ee8a900000000000000000000000000000000000000000000000000000000815260040160405180910390fd5b67ffffffffffffffff8016815f015f9054906101000a900467ffffffffffffffff1667ffffffffffffffff161461011e5767ffffffffffffffff815f015f6101000a81548167ffffffffffffffff021916908367ffffffffffffffff1602179055507fc7f505b2f371ae2175ee4913f4499e1f2633a7b5936321eed1cdaeb6115181d267ffffffffffffffff6040516101159190610185565b60405180910390a15b50565b5f5f61013161013a60201b60201c565b90508091505090565b5f7ff0c57e16840df040f15088dc2f81fe391c3923bec73e23a9662efc9c229c6a005f1b905090565b5f67ffffffffffffffff82169050919050565b61017f81610163565b82525050565b5f6020820190506101985f830184610176565b92915050565b6112b9806101ab5f395ff3fe608060405234801561000f575f5ffd5b50600436106100b2575f3560e01c80638129fc1c1161006f5780638129fc1c1461019c57806382aefa24146101a657806391d14854146101c4578063a217fddf146101f4578063d547741f14610212578063d5c779441461022e576100b2565b806301ffc9a7146100b65780630518adbd146100e65780631bf4667914610118578063248a9ca3146101345780632f2ff15d1461016457806336568abe14610180575b5f5ffd5b6100d060048036038101906100cb9190610e5b565b61024a565b6040516100dd9190610ea0565b60405180910390f35b61010060048036038101906100fb9190610eec565b6102c3565b60405161010f93929190610fe1565b60405180910390f35b610132600480360381019061012d9190610eec565b610320565b005b61014e60048036038101906101499190610eec565b6104fa565b60405161015b9190611025565b60405180910390f35b61017e60048036038101906101799190611068565b610524565b005b61019a60048036038101906101959190611068565b610546565b005b6101a46105c1565b005b6101ae610755565b6040516101bb9190611025565b60405180910390f35b6101de60048036038101906101d99190611068565b610779565b6040516101eb9190610ea0565b60405180910390f35b6101fc6107ea565b6040516102099190611025565b60405180910390f35b61022c60048036038101906102279190611068565b6107f0565b005b61024860048036038101906102439190610eec565b610812565b005b5f7f7965db0b000000000000000000000000000000000000000000000000000000007bffffffffffffffffffffffffffffffffffffffffffffffffffffffff1916827bffffffffffffffffffffffffffffffffffffffffffffffffffffffff191614806102bc57506102bb826109af565b5b9050919050565b5f5f5f5f5f5f8681526020019081526020015f209050805f015f9054906101000a900460ff16815f0160019054906101000a900473ffffffffffffffffffffffffffffffffffffffff168260010154935093509350509193909250565b610328610a18565b7f114e74f6ea3bd819998f78687bfcb11b140da08e9b7d222fa9c1f1ba1f2aa12261035281610a6c565b5f600281111561036557610364610f17565b5b5f5f8481526020019081526020015f205f015f9054906101000a900460ff16600281111561039657610395610f17565b5b146103d6576040517f08c379a00000000000000000000000000000000000000000000000000000000081526004016103cd90611100565b60405180910390fd5b6040518060600160405280600160028111156103f5576103f4610f17565b5b81526020013373ffffffffffffffffffffffffffffffffffffffff168152602001428152505f5f8481526020019081526020015f205f820151815f015f6101000a81548160ff0219169083600281111561045257610451610f17565b5b02179055506020820151815f0160016101000a81548173ffffffffffffffffffffffffffffffffffffffff021916908373ffffffffffffffffffffffffffffffffffffffff160217905550604082015181600101559050503373ffffffffffffffffffffffffffffffffffffffff16827faf98e56fa28c813eb4dc65469fbff8cdd288e6897b494d87f0acd8b0fd8d525660405160405180910390a3506104f7610a80565b50565b5f5f610504610a97565b9050805f015f8481526020019081526020015f2060010154915050919050565b61052d826104fa565b61053681610a6c565b6105408383610abe565b50505050565b61054e610bb6565b73ffffffffffffffffffffffffffffffffffffffff168173ffffffffffffffffffffffffffffffffffffffff16146105b2576040517f6697b23200000000000000000000000000000000000000000000000000000000815260040160405180910390fd5b6105bc8282610bbd565b505050565b5f6105ca610cb5565b90505f815f0160089054906101000a900460ff161590505f825f015f9054906101000a900467ffffffffffffffff1690505f5f8267ffffffffffffffff161480156106125750825b90505f60018367ffffffffffffffff1614801561064557505f3073ffffffffffffffffffffffffffffffffffffffff163b145b905081158015610653575080155b1561068a576040517ff92ee8a900000000000000000000000000000000000000000000000000000000815260040160405180910390fd5b6001855f015f6101000a81548167ffffffffffffffff021916908367ffffffffffffffff16021790555083156106d7576001855f0160086101000a81548160ff0219169083151502179055505b6106df610cc8565b6106e7610cd2565b6106f35f5f1b33610abe565b50831561074e575f855f0160086101000a81548160ff0219169083151502179055507fc7f505b2f371ae2175ee4913f4499e1f2633a7b5936321eed1cdaeb6115181d260016040516107459190611173565b60405180910390a15b5050505050565b7f114e74f6ea3bd819998f78687bfcb11b140da08e9b7d222fa9c1f1ba1f2aa12281565b5f5f610783610a97565b9050805f015f8581526020019081526020015f205f015f8473ffffffffffffffffffffffffffffffffffffffff1673ffffffffffffffffffffffffffffffffffffffff1681526020019081526020015f205f9054906101000a900460ff1691505092915050565b5f5f1b81565b6107f9826104fa565b61080281610a6c565b61080c8383610bbd565b50505050565b61081a610a18565b5f5f5f8381526020019081526020015f2090506001600281111561084157610840610f17565b5b815f015f9054906101000a900460ff16600281111561086357610862610f17565b5b146108a3576040517f08c379a000000000000000000000000000000000000000000000000000000000815260040161089a906111d6565b60405180910390fd5b3373ffffffffffffffffffffffffffffffffffffffff16815f0160019054906101000a900473ffffffffffffffffffffffffffffffffffffffff1673ffffffffffffffffffffffffffffffffffffffff1614610934576040517f08c379a000000000000000000000000000000000000000000000000000000000815260040161092b9061123e565b60405180910390fd5b6002815f015f6101000a81548160ff0219169083600281111561095a57610959610f17565b5b02179055503373ffffffffffffffffffffffffffffffffffffffff16827fb4dcfc97b0ff4f37184998f8968ec3e43aba968979dcd2c77629c54f055cdda560405160405180910390a3506109ac610a80565b50565b5f7f01ffc9a7000000000000000000000000000000000000000000000000000000007bffffffffffffffffffffffffffffffffffffffffffffffffffffffff1916827bffffffffffffffffffffffffffffffffffffffffffffffffffffffff1916149050919050565b5f610a21610ce4565b90506002815f015403610a60576040517f3ee5aeb500000000000000000000000000000000000000000000000000000000815260040160405180910390fd5b6002815f018190555050565b610a7d81610a78610bb6565b610d0b565b50565b5f610a89610ce4565b90506001815f018190555050565b5f7f02dd7bc7dec4dceedda775e58dd541e08a116c6c53815c0bd028192f7b626800905090565b5f5f610ac8610a97565b9050610ad48484610779565b610bab576001815f015f8681526020019081526020015f205f015f8573ffffffffffffffffffffffffffffffffffffffff1673ffffffffffffffffffffffffffffffffffffffff1681526020019081526020015f205f6101000a81548160ff021916908315150217905550610b47610bb6565b73ffffffffffffffffffffffffffffffffffffffff168373ffffffffffffffffffffffffffffffffffffffff16857f2f8788117e7eff1d82e926ec794901d17c78024a50270940304540a733656f0d60405160405180910390a46001915050610bb0565b5f9150505b92915050565b5f33905090565b5f5f610bc7610a97565b9050610bd38484610779565b15610caa575f815f015f8681526020019081526020015f205f015f8573ffffffffffffffffffffffffffffffffffffffff1673ffffffffffffffffffffffffffffffffffffffff1681526020019081526020015f205f6101000a81548160ff021916908315150217905550610c46610bb6565b73ffffffffffffffffffffffffffffffffffffffff168373ffffffffffffffffffffffffffffffffffffffff16857ff6391f5c32d9c69d2a47ea670b442974b53935d1edc7fd64eb21e047a839171b60405160405180910390a46001915050610caf565b5f9150505b92915050565b5f5f610cbf610d5c565b90508091505090565b610cd0610d85565b565b610cda610d85565b610ce2610dc5565b565b5f7f9b779b17422d0df92223018b32b4d1fa46e071723d6817e2486d003becc55f00905090565b610d158282610779565b610d585780826040517fe2517d3f000000000000000000000000000000000000000000000000000000008152600401610d4f92919061125c565b60405180910390fd5b5050565b5f7ff0c57e16840df040f15088dc2f81fe391c3923bec73e23a9662efc9c229c6a005f1b905090565b610d8d610de4565b610dc3576040517fd7e6bcf800000000000000000000000000000000000000000000000000000000815260040160405180910390fd5b565b610dcd610d85565b5f610dd6610ce4565b90506001815f018190555050565b5f610ded610cb5565b5f0160089054906101000a900460ff16905090565b5f5ffd5b5f7fffffffff0000000000000000000000000000000000000000000000000000000082169050919050565b610e3a81610e06565b8114610e44575f5ffd5b50565b5f81359050610e5581610e31565b92915050565b5f60208284031215610e7057610e6f610e02565b5b5f610e7d84828501610e47565b91505092915050565b5f8115159050919050565b610e9a81610e86565b82525050565b5f602082019050610eb35f830184610e91565b92915050565b5f819050919050565b610ecb81610eb9565b8114610ed5575f5ffd5b50565b5f81359050610ee681610ec2565b92915050565b5f60208284031215610f0157610f00610e02565b5b5f610f0e84828501610ed8565b91505092915050565b7f4e487b71000000000000000000000000000000000000000000000000000000005f52602160045260245ffd5b60038110610f5557610f54610f17565b5b50565b5f819050610f6582610f44565b919050565b5f610f7482610f58565b9050919050565b610f8481610f6a565b82525050565b5f73ffffffffffffffffffffffffffffffffffffffff82169050919050565b5f610fb382610f8a565b9050919050565b610fc381610fa9565b82525050565b5f819050919050565b610fdb81610fc9565b82525050565b5f606082019050610ff45f830186610f7b565b6110016020830185610fba565b61100e6040830184610fd2565b949350505050565b61101f81610eb9565b82525050565b5f6020820190506110385f830184611016565b92915050565b61104781610fa9565b8114611051575f5ffd5b50565b5f813590506110628161103e565b92915050565b5f5f6040838503121561107e5761107d610e02565b5b5f61108b85828601610ed8565b925050602061109c85828601611054565b9150509250929050565b5f82825260208201905092915050565b7f56433a20416c726561647920616e63686f7265640000000000000000000000005f82015250565b5f6110ea6014836110a6565b91506110f5826110b6565b602082019050919050565b5f6020820190508181035f830152611117816110de565b9050919050565b5f819050919050565b5f67ffffffffffffffff82169050919050565b5f819050919050565b5f61115d6111586111538461111e565b61113a565b611127565b9050919050565b61116d81611143565b82525050565b5f6020820190506111865f830184611164565b92915050565b7f56433a204e6f7420616374697665206f7220646f6573206e6f742065786973745f82015250565b5f6111c06020836110a6565b91506111cb8261118c565b602082019050919050565b5f6020820190508181035f8301526111ed816111b4565b9050919050565b7f43616c6c65723a204e6f7420746865206f726967696e616c20697373756572005f82015250565b5f611228601f836110a6565b9150611233826111f4565b602082019050919050565b5f6020820190508181035f8301526112558161121c565b9050919050565b5f60408201905061126f5f830185610fba565b61127c6020830184611016565b939250505056fea2646970667358221220e1fdbcceba6078d9f7456e21a232519131e78d38b7ecb91470a7b52dd0042c0164736f6c634300081e0033","linkReferences":{}},"methodIdentifiers":{"DEFAULT_ADMIN_ROLE()":"a217fddf","ISSUER_ROLE()":"82aefa24","anchorVC(bytes32)":"1bf46679","getRoleAdmin(bytes32)":"248a9ca3","getVCEntry(bytes32)":"0518adbd","grantRole(bytes32,address)":"2f2ff15d","hasRole(bytes32,address)":"91d14854","initialize()":"8129fc1c","renounceRole(bytes32,address)":"36568abe","revokeRole(bytes32,address)":"d547741f","revokeVC(bytes32)":"d5c77944","supportsInterface(bytes4)":"01ffc9a7"},"id":8}