{"abi":[{"type":"constructor","inputs":[],"stateMutability":"nonpayable"},{"type":"function","name":"DEFAULT_ADMIN_ROLE","inputs":[],"outputs":[{"name":"","type":"bytes32","internalType":"bytes32"}],"stateMutability":"view"},{"type":"function","name":"getDIDByOwner","inputs":[{"name":"owner","type":"address","internalType":"address"}],"outputs":[{"name":"","type":"string","internalType":"string"}],"stateMutability":"view"},{"type":"function","name":"getDIDOwner","inputs":[{"name":"did","type":"string","internalType":"string"}],"outputs":[{"name":"","type":"address","internalType":"address"}],"stateMutability":"view"},{"type":"function","name":"getRoleAdmin","inputs":[{"name":"role","type":"bytes32","internalType":"bytes32"}],"outputs":[{"name":"","type":"bytes32","internalType":"bytes32"}],"stateMutability":"view"},{"type":"function","name":"grantRole","inputs":[{"name":"role","type":"bytes32","internalType":"bytes32"},{"name":"account","type":"address","internalType":"address"}],"outputs":[],"stateMutability":"nonpayable"},{"type":"function","name":"hasRole","inputs":[{"name":"role","type":"bytes32","internalType":"bytes32"},{"name":"account","type":"address","internalType":"address"}],"outputs":[{"name":"","type":"bool","internalType":"bool"}],"stateMutability":"view"},{"type":"function","name":"initialize","inputs":[],"outputs":[],"stateMutability":"nonpayable"},{"type":"function","name":"registerDID","inputs":[{"name":"did","type":"string","internalType":"string"}],"outputs":[],"stateMutability":"nonpayable"},{"type":"function","name":"renounceRole","inputs":[{"name":"role","type":"bytes32","internalType":"bytes32"},{"name":"callerConfirmation","type":"address","internalType":"address"}],"outputs":[],"stateMutability":"nonpayable"},{"type":"function","name":"revokeRole","inputs":[{"name":"role","type":"bytes32","internalType":"bytes32"},{"name":"account","type":"address","internalType":"address"}],"outputs":[],"stateMutability":"nonpayable"},{"type":"function","name":"supportsInterface","inputs":[{"name":"interfaceId","type":"bytes4","internalType":"bytes4"}],"outputs":[{"name":"","type":"bool","internalType":"bool"}],"stateMutability":"view"},{"type":"function","name":"updateDIDOwner","inputs":[{"name":"did","type":"string","internalType":"string"},{"name":"newOwner","type":"address","internalType":"address"}],"outputs":[],"stateMutability":"nonpayable"},{"type":"event","name":"DIDOwnerUpdated","inputs":[{"name":"did","type":"string","indexed":true,"internalType":"string"},{"name":"oldOwner","type":"address","indexed":true,"internalType":"address"},{"name":"newOwner","type":"address","indexed":true,"internalType":"address"}],"anonymous":false},{"type":"event","name":"DIDRegistered","inputs":[{"name":"did","type":"string","indexed":true,"internalType":"string"},{"name":"owner","type":"address","indexed":true,"internalType":"address"}],"anonymous":false},{"type":"event","name":"Initialized","inputs":[{"name":"version","type":"uint64","indexed":false,"internalType":"uint64"}],"anonymous":false},{"type":"event","name":"RoleAdminChanged","inputs":[{"name":"role","type":"bytes32","indexed":true,"internalType":"bytes32"},{"name":"previousAdminRole","type":"bytes32","indexed":true,"internalType":"bytes32"},{"name":"newAdminRole","type":"bytes32","indexed":true,"internalType":"bytes32"}],"anonymous":false},{"type":"event","name":"RoleGranted","inputs":[{"name":"role","type":"bytes32","indexed":true,"internalType":"bytes32"},{"name":"account","type":"address","indexed":true,"internalType":"address"},{"name":"sender","type":"address","indexed":true,"internalType":"address"}],"anonymous":false},{"type":"event","name":"RoleRevoked","inputs":[{"name":"role","type":"bytes32","indexed":true,"internalType":"bytes32"},{"name":"account","type":"address","indexed":true,"internalType":"address"},{"name":"sender","type":"address","indexed":true,"internalType":"address"}],"anonymous":false},{"type":"error","name":"AccessControlBadConfirmation","inputs":[]},{"type":"error","name":"AccessControlUnauthorizedAccount","inputs":[{"name":"account","type":"address","internalType":"address"},{"name":"neededRole","type":"bytes32","internalType":"bytes32"}]},{"type":"error","name":"InvalidInitialization","inputs":[]},{"type":"error","name":"NotInitializing","inputs":[]},{"type":"error","name":"ReentrancyGuardReentrantCall","inputs":[]}],"bytecode":{"object":"0x608060405234801561000f575f5ffd5b5061001e61002360201b60201c565b61019e565b5f61003261012160201b60201c565b9050805f0160089054906101000a900460ff161561007c576040517ff92ee8a900000000000000000000000000000000000000000000000000000000815260040160405180910390fd5b67ffffffffffffffff8016815f015f9054906101000a900467ffffffffffffffff1667ffffffffffffffff161461011e5767ffffffffffffffff815f015f6101000a81548167ffffffffffffffff021916908367ffffffffffffffff1602179055507fc7f505b2f371ae2175ee4913f4499e1f2633a7b5936321eed1cdaeb6115181d267ffffffffffffffff6040516101159190610185565b60405180910390a15b50565b5f5f61013161013a60201b60201c565b90508091505090565b5f7ff0c57e16840df040f15088dc2f81fe391c3923bec73e23a9662efc9c229c6a005f1b905090565b5f67ffffffffffffffff82169050919050565b61017f81610163565b82525050565b5f6020820190506101985f830184610176565b92915050565b611bb9806101ab5f395ff3fe608060405234801561000f575f5ffd5b50600436106100b1575f3560e01c8063570810e21161006f578063570810e2146101995780635b112559146101b55780638129fc1c146101e557806391d14854146101ef578063a217fddf1461021f578063d547741f1461023d576100b1565b806262d1ac146100b557806301ffc9a7146100e5578063248a9ca3146101155780632f2ff15d1461014557806336568abe146101615780633b5708d51461017d575b5f5ffd5b6100cf60048036038101906100ca91906111a0565b610259565b6040516100dc919061123b565b60405180910390f35b6100ff60048036038101906100fa91906112b0565b610326565b60405161010c91906112f5565b60405180910390f35b61012f600480360381019061012a9190611341565b61039f565b60405161013c919061137b565b60405180910390f35b61015f600480360381019061015a9190611394565b6103c9565b005b61017b60048036038101906101769190611394565b6103eb565b005b61019760048036038101906101929190611433565b610466565b005b6101b360048036038101906101ae9190611490565b610789565b005b6101cf60048036038101906101ca9190611490565b610a1e565b6040516101dc91906114ea565b60405180910390f35b6101ed610a66565b005b61020960048036038101906102049190611394565b610bfa565b60405161021691906112f5565b60405180910390f35b610227610c6b565b604051610234919061137b565b60405180910390f35b61025760048036038101906102529190611394565b610c71565b005b606060015f8373ffffffffffffffffffffffffffffffffffffffff1673ffffffffffffffffffffffffffffffffffffffff1681526020019081526020015f2080546102a390611530565b80601f01602080910402602001604051908101604052809291908181526020018280546102cf90611530565b801561031a5780601f106102f15761010080835404028352916020019161031a565b820191905f5260205f20905b8154815290600101906020018083116102fd57829003601f168201915b50505050509050919050565b5f7f7965db0b000000000000000000000000000000000000000000000000000000007bffffffffffffffffffffffffffffffffffffffffffffffffffffffff1916827bffffffffffffffffffffffffffffffffffffffffffffffffffffffff19161480610398575061039782610c93565b5b9050919050565b5f5f6103a9610cfc565b9050805f015f8481526020019081526020015f2060010154915050919050565b6103d28261039f565b6103db81610d23565b6103e58383610d37565b50505050565b6103f3610e2f565b73ffffffffffffffffffffffffffffffffffffffff168173ffffffffffffffffffffffffffffffffffffffff1614610457576040517f6697b23200000000000000000000000000000000000000000000000000000000815260040160405180910390fd5b6104618282610e36565b505050565b61046e610f2e565b5f5f848460405161048092919061159c565b90815260200160405180910390205f9054906101000a900473ffffffffffffffffffffffffffffffffffffffff1690503373ffffffffffffffffffffffffffffffffffffffff168173ffffffffffffffffffffffffffffffffffffffff161461051e576040517f08c379a0000000000000000000000000000000000000000000000000000000008152600401610515906115fe565b60405180910390fd5b5f73ffffffffffffffffffffffffffffffffffffffff168273ffffffffffffffffffffffffffffffffffffffff160361058c576040517f08c379a00000000000000000000000000000000000000000000000000000000081526004016105839061168c565b60405180910390fd5b5f60015f8473ffffffffffffffffffffffffffffffffffffffff1673ffffffffffffffffffffffffffffffffffffffff1681526020019081526020015f2080546105d590611530565b905014610617576040517f08c379a000000000000000000000000000000000000000000000000000000000815260040161060e906116f4565b60405180910390fd5b815f858560405161062992919061159c565b90815260200160405180910390205f6101000a81548173ffffffffffffffffffffffffffffffffffffffff021916908373ffffffffffffffffffffffffffffffffffffffff160217905550838360015f8573ffffffffffffffffffffffffffffffffffffffff1673ffffffffffffffffffffffffffffffffffffffff1681526020019081526020015f2091826106c09291906118f2565b5060015f8273ffffffffffffffffffffffffffffffffffffffff1673ffffffffffffffffffffffffffffffffffffffff1681526020019081526020015f205f61070991906110e6565b8173ffffffffffffffffffffffffffffffffffffffff168173ffffffffffffffffffffffffffffffffffffffff16858560405161074792919061159c565b60405180910390207f6c71941005c257b53c67da5f1b0628e2c9799d0ee9903eb4dbffd77ca61520f160405160405180910390a450610784610f82565b505050565b610791610f2e565b5f82829050116107d6576040517f08c379a00000000000000000000000000000000000000000000000000000000081526004016107cd90611a09565b60405180910390fd5b5f73ffffffffffffffffffffffffffffffffffffffff165f83836040516107fe92919061159c565b90815260200160405180910390205f9054906101000a900473ffffffffffffffffffffffffffffffffffffffff1673ffffffffffffffffffffffffffffffffffffffff1614610882576040517f08c379a000000000000000000000000000000000000000000000000000000000815260040161087990611a71565b60405180910390fd5b5f60015f3373ffffffffffffffffffffffffffffffffffffffff1673ffffffffffffffffffffffffffffffffffffffff1681526020019081526020015f2080546108cb90611530565b90501461090d576040517f08c379a000000000000000000000000000000000000000000000000000000000815260040161090490611ad9565b60405180910390fd5b335f838360405161091f92919061159c565b90815260200160405180910390205f6101000a81548173ffffffffffffffffffffffffffffffffffffffff021916908373ffffffffffffffffffffffffffffffffffffffff160217905550818160015f3373ffffffffffffffffffffffffffffffffffffffff1673ffffffffffffffffffffffffffffffffffffffff1681526020019081526020015f2091826109b69291906118f2565b503373ffffffffffffffffffffffffffffffffffffffff1682826040516109de92919061159c565b60405180910390207fd59e4d670f6e249831d6f8ce560f47ced54b3f4203e2d0050dc495fd6b919dd260405160405180910390a3610a1a610f82565b5050565b5f5f8383604051610a3092919061159c565b90815260200160405180910390205f9054906101000a900473ffffffffffffffffffffffffffffffffffffffff16905092915050565b5f610a6f610f99565b90505f815f0160089054906101000a900460ff161590505f825f015f9054906101000a900467ffffffffffffffff1690505f5f8267ffffffffffffffff16148015610ab75750825b90505f60018367ffffffffffffffff16148015610aea57505f3073ffffffffffffffffffffffffffffffffffffffff163b145b905081158015610af8575080155b15610b2f576040517ff92ee8a900000000000000000000000000000000000000000000000000000000815260040160405180910390fd5b6001855f015f6101000a81548167ffffffffffffffff021916908367ffffffffffffffff1602179055508315610b7c576001855f0160086101000a81548160ff0219169083151502179055505b610b84610fac565b610b8c610fb6565b610b985f5f1b33610d37565b508315610bf3575f855f0160086101000a81548160ff0219169083151502179055507fc7f505b2f371ae2175ee4913f4499e1f2633a7b5936321eed1cdaeb6115181d26001604051610bea9190611b43565b60405180910390a15b5050505050565b5f5f610c04610cfc565b9050805f015f8581526020019081526020015f205f015f8473ffffffffffffffffffffffffffffffffffffffff1673ffffffffffffffffffffffffffffffffffffffff1681526020019081526020015f205f9054906101000a900460ff1691505092915050565b5f5f1b81565b610c7a8261039f565b610c8381610d23565b610c8d8383610e36565b50505050565b5f7f01ffc9a7000000000000000000000000000000000000000000000000000000007bffffffffffffffffffffffffffffffffffffffffffffffffffffffff1916827bffffffffffffffffffffffffffffffffffffffffffffffffffffffff1916149050919050565b5f7f02dd7bc7dec4dceedda775e58dd541e08a116c6c53815c0bd028192f7b626800905090565b610d3481610d2f610e2f565b610fc8565b50565b5f5f610d41610cfc565b9050610d4d8484610bfa565b610e24576001815f015f8681526020019081526020015f205f015f8573ffffffffffffffffffffffffffffffffffffffff1673ffffffffffffffffffffffffffffffffffffffff1681526020019081526020015f205f6101000a81548160ff021916908315150217905550610dc0610e2f565b73ffffffffffffffffffffffffffffffffffffffff168373ffffffffffffffffffffffffffffffffffffffff16857f2f8788117e7eff1d82e926ec794901d17c78024a50270940304540a733656f0d60405160405180910390a46001915050610e29565b5f9150505b92915050565b5f33905090565b5f5f610e40610cfc565b9050610e4c8484610bfa565b15610f23575f815f015f8681526020019081526020015f205f015f8573ffffffffffffffffffffffffffffffffffffffff1673ffffffffffffffffffffffffffffffffffffffff1681526020019081526020015f205f6101000a81548160ff021916908315150217905550610ebf610e2f565b73ffffffffffffffffffffffffffffffffffffffff168373ffffffffffffffffffffffffffffffffffffffff16857ff6391f5c32d9c69d2a47ea670b442974b53935d1edc7fd64eb21e047a839171b60405160405180910390a46001915050610f28565b5f9150505b92915050565b5f610f37611019565b90506002815f015403610f76576040517f3ee5aeb500000000000000000000000000000000000000000000000000000000815260040160405180910390fd5b6002815f018190555050565b5f610f8b611019565b90506001815f018190555050565b5f5f610fa3611040565b90508091505090565b610fb4611069565b565b610fbe611069565b610fc66110a9565b565b610fd28282610bfa565b6110155780826040517fe2517d3f00000000000000000000000000000000000000000000000000000000815260040161100c929190611b5c565b60405180910390fd5b5050565b5f7f9b779b17422d0df92223018b32b4d1fa46e071723d6817e2486d003becc55f00905090565b5f7ff0c57e16840df040f15088dc2f81fe391c3923bec73e23a9662efc9c229c6a005f1b905090565b6110716110c8565b6110a7576040517fd7e6bcf800000000000000000000000000000000000000000000000000000000815260040160405180910390fd5b565b6110b1611069565b5f6110ba611019565b90506001815f018190555050565b5f6110d1610f99565b5f0160089054906101000a900460ff16905090565b5080546110f290611530565b5f825580601f106111035750611120565b601f0160209004905f5260205f209081019061111f9190611123565b5b50565b5b8082111561113a575f815f905550600101611124565b5090565b5f5ffd5b5f5ffd5b5f73ffffffffffffffffffffffffffffffffffffffff82169050919050565b5f61116f82611146565b9050919050565b61117f81611165565b8114611189575f5ffd5b50565b5f8135905061119a81611176565b92915050565b5f602082840312156111b5576111b461113e565b5b5f6111c28482850161118c565b91505092915050565b5f81519050919050565b5f82825260208201905092915050565b8281835e5f83830152505050565b5f601f19601f8301169050919050565b5f61120d826111cb565b61121781856111d5565b93506112278185602086016111e5565b611230816111f3565b840191505092915050565b5f6020820190508181035f8301526112538184611203565b905092915050565b5f7fffffffff0000000000000000000000000000000000000000000000000000000082169050919050565b61128f8161125b565b8114611299575f5ffd5b50565b5f813590506112aa81611286565b92915050565b5f602082840312156112c5576112c461113e565b5b5f6112d28482850161129c565b91505092915050565b5f8115159050919050565b6112ef816112db565b82525050565b5f6020820190506113085f8301846112e6565b92915050565b5f819050919050565b6113208161130e565b811461132a575f5ffd5b50565b5f8135905061133b81611317565b92915050565b5f602082840312156113565761135561113e565b5b5f6113638482850161132d565b91505092915050565b6113758161130e565b82525050565b5f60208201905061138e5f83018461136c565b92915050565b5f5f604083850312156113aa576113a961113e565b5b5f6113b78582860161132d565b92505060206113c88582860161118c565b9150509250929050565b5f5ffd5b5f5ffd5b5f5ffd5b5f5f83601f8401126113f3576113f26113d2565b5b8235905067ffffffffffffffff8111156114105761140f6113d6565b5b60208301915083600182028301111561142c5761142b6113da565b5b9250929050565b5f5f5f6040848603121561144a5761144961113e565b5b5f84013567ffffffffffffffff81111561146757611466611142565b5b611473868287016113de565b935093505060206114868682870161118c565b9150509250925092565b5f5f602083850312156114a6576114a561113e565b5b5f83013567ffffffffffffffff8111156114c3576114c2611142565b5b6114cf858286016113de565b92509250509250929050565b6114e481611165565b82525050565b5f6020820190506114fd5f8301846114db565b92915050565b7f4e487b71000000000000000000000000000000000000000000000000000000005f52602260045260245ffd5b5f600282049050600182168061154757607f821691505b60208210810361155a57611559611503565b5b50919050565b5f81905092915050565b828183375f83830152505050565b5f6115838385611560565b935061159083858461156a565b82840190509392505050565b5f6115a8828486611578565b91508190509392505050565b7f43616c6c6572206973206e6f74207468652063757272656e74206f776e6572005f82015250565b5f6115e8601f836111d5565b91506115f3826115b4565b602082019050919050565b5f6020820190508181035f830152611615816115dc565b9050919050565b7f4e6577206f776e65722063616e6e6f7420626520746865207a65726f206164645f8201527f7265737300000000000000000000000000000000000000000000000000000000602082015250565b5f6116766024836111d5565b91506116818261161c565b604082019050919050565b5f6020820190508181035f8301526116a38161166a565b9050919050565b7f4e6577206f776e65723a20416c726561647920686173206120444944000000005f82015250565b5f6116de601c836111d5565b91506116e9826116aa565b602082019050919050565b5f6020820190508181035f83015261170b816116d2565b9050919050565b5f82905092915050565b7f4e487b71000000000000000000000000000000000000000000000000000000005f52604160045260245ffd5b5f819050815f5260205f209050919050565b5f6020601f8301049050919050565b5f82821b905092915050565b5f600883026117a57fffffffffffffffffffffffffffffffffffffffffffffffffffffffffffffffff8261176a565b6117af868361176a565b95508019841693508086168417925050509392505050565b5f819050919050565b5f819050919050565b5f6117f36117ee6117e9846117c7565b6117d0565b6117c7565b9050919050565b5f819050919050565b61180c836117d9565b611820611818826117fa565b848454611776565b825550505050565b5f5f905090565b611837611828565b611842818484611803565b505050565b5b818110156118655761185a5f8261182f565b600181019050611848565b5050565b601f8211156118aa5761187b81611749565b6118848461175b565b81016020851015611893578190505b6118a761189f8561175b565b830182611847565b50505b505050565b5f82821c905092915050565b5f6118ca5f19846008026118af565b1980831691505092915050565b5f6118e283836118bb565b9150826002028217905092915050565b6118fc8383611712565b67ffffffffffffffff8111156119155761191461171c565b5b61191f8254611530565b61192a828285611869565b5f601f831160018114611957575f8415611945578287013590505b61194f85826118d7565b8655506119b6565b601f19841661196586611749565b5f5b8281101561198c57848901358255600182019150602085019450602081019050611967565b868310156119a957848901356119a5601f8916826118bb565b8355505b6001600288020188555050505b50505050505050565b7f4449442063616e6e6f7420626520656d707479000000000000000000000000005f82015250565b5f6119f36013836111d5565b91506119fe826119bf565b602082019050919050565b5f6020820190508181035f830152611a20816119e7565b9050919050565b7f4449443a20416c726561647920726567697374657265640000000000000000005f82015250565b5f611a5b6017836111d5565b9150611a6682611a27565b602082019050919050565b5f6020820190508181035f830152611a8881611a4f565b9050919050565b7f4f776e65723a20416c72656164792068617320612044494400000000000000005f82015250565b5f611ac36018836111d5565b9150611ace82611a8f565b602082019050919050565b5f6020820190508181035f830152611af081611ab7565b9050919050565b5f819050919050565b5f67ffffffffffffffff82169050919050565b5f611b2d611b28611b2384611af7565b6117d0565b611b00565b9050919050565b611b3d81611b13565b82525050565b5f602082019050611b565f830184611b34565b92915050565b5f604082019050611b6f5f8301856114db565b611b7c602083018461136c565b939250505056fea2646970667358221220bd7c647add32d71bd8187af8a531c11a7f8dccfc85a47a8f8ee83cdc6ea9ee7864736f6c634300081e0033","linkReferences":{}},"methodIdentifiers":{"DEFAULT_ADMIN_ROLE()":"a217fddf","getDIDByOwner(address)":"0062d1ac","getDIDOwner(string)":"5b112559","getRoleAdmin(bytes32)":"248a9ca3","grantRole(bytes32,address)":"2f2ff15d","hasRole(bytes32,address)":"91d14854","initialize()":"8129fc1c","registerDID(string)":"570810e2","renounceRole(bytes32,address)":"36568abe","revokeRole(bytes32,address)":"d547741f","supportsInterface(bytes4)":"01ffc9a7","updateDIDOwner(string,address)":"3b5708d5"},"id":7}